:020000040800F2
:1000000000040020A10200088510000889100008E3
:10001000DD10000889100008B1100008A3020008D4
:10002000A3020008A3020008A3020008BD280008DC
:10003000A3020008A3020008A3020008A30200080C
:10004000A3020008A3020008A3020008A3020008FC
:10005000A3020008A30200080D3E0008393E000874
:10006000653E0008913E0008BD3E0008A30200085E
:10007000A3020008A3020008A3020008A3020008CC
:10008000A3020008A3020008A3020008A3020008BC
:10009000A3020008A3020008A3020008E93E00082A
:1000A000A3020008A3020008A3020008A30200089C
:1000B000A3020008A3020008A3020008A30200088C
:1000C000A3020008A3020008A3020008A30200087C
:1000D000A3020008A3020008A3020008A30200086C
:1000E000513F0008A3020008A3020008A302000871
:1000F000A3020008A3020008A3020008A30200084C
:10010000A3020008A3020008813A0008A302000825
:10011000A3020008A3020008A3020008A30200082B
:10012000A3020008A3020008A3020008A30200081B
:10013000A3020008A3020008A3020008A30200080B
:10014000A3020008A3020008A3020008A3020008FB
:10015000A3020008A3020008A3020008A3020008EB
:10016000A3020008A3020008A3020008A3020008DB
:10017000A3020008F5330008A3020008A302000848
:10018000A3020008A302000845110008A30200080A
:10019000A3020008A3020008A3020008A3020008AB
:1001A000A3020008A3020008A3020008A30200089B
:1001B000A3020008A3020008A3020008A30200088B
:1001C000A3020008A3020008A3020008A30200087B
:1001D000A3020008E1330008A3020008A3020008FC
:1001E000A3020008A3020008A3020008A30200085B
:1001F000A3020008A3020008A3020008A30200084B
:10020000A3020008A3020008A3020008A30200083A
:10021000A3020008A3020008A3020008A30200082A
:10022000A3020008A3020008A3020008A30200081A
:10023000A3020008A3020008A3020008A30200080A
:10024000A3020008A3020008A3020008A3020008FA
:10025000A3020008A3020008A3020008A3020008EA
:10026000A3020008A3020008A3020008A3020008DA
:10027000A3020008A3020008A3020008A3020008CA
:10028000A3020008A3020008A3020008A3020008BA
:10029000A3020008A3020008A3020008A3020008AA
:1002A00002E000F000F8FEE772B6394880F30888F3
:1002B000384880F3098838484EF60851CEF20001DC
:1002C000086040F20000CCF200004EF63471CEF22D
:1002D00000010860BFF34F8FBFF36F8F40F2000043
:1002E000C0F2F0004EF68851CEF200010860BFF374
:1002F0004F8FBFF36F8F4FF00000E1EE100A4EF604
:100300003C71CEF200010860062080F31488BFF330
:100310006F8F02F011FB03F031FB4FF055301F4996
:100320001B4A91423CBF41F8040BFAE71C49194AA9
:1003300091423CBF41F8040BFAE71A491A4A1B4B99
:100340009A423EBF51F8040B42F8040BF8E7002034
:100350001749184A91423CBF41F8040BFAE702F0F2
:100360002FFB03F07FFB144C144DAC4203DA54F81E
:10037000041B8847F9E700F03FF8114C114DAC42DF
:1003800003DA54F8041B8847F9E702F017BB0000B2
:1003900000040020002400200000000800000020CD
:1003A00000040020B843000800240020442400205A
:1003B0004824002060390020A0020008A0020008A4
:1003C000A0020008A00200082DE9F04F2DED108AD0
:1003D000C1F80CD0D0F80CD0BDEC108ABDE8F08F7D
:1003E000002383F311882846A047002001F0D0FEA7
:1003F00001F080FE00DFFEE738B5204C6FF073039C
:10040000002523701E236570A570E5702571657148
:10041000A571E57125726572A372E57200F070FD39
:1004200020B10E2325726572A372E57202F00CFAF8
:10043000044602F03DFA0546D8B9114B9C421AD049
:1004400001339C4218BF054641F2883404BF0125A0
:100450000024002002F002FA0DB100F0B7F800F01D
:10046000B7FD00F0A3FC204600F070F900F0AEF8F4
:10047000F9E70024EDE70446EBE700BF482400203D
:10048000010007B008B500F00FFCA0F120035842AE
:10049000584108BD07B5054B02211B88ADF8043053
:1004A00001A800F06DFC03B05DF804FB58400008A3
:1004B000064991F8243033B100230822086A81F8F4
:1004C000243000F097BC0120704700BF6824002052
:1004D0002DE9F84F234C94F82430054688461746FA
:1004E0008BBB2E46DFF87C90002F38D094F824A0E8
:1004F000BAF1000F05D12022FF214846266200F004
:1005000055FDCAF10805BD4228BF3D465FFA85FB8F
:10051000AD0041462A4604EB8A0000F01DFD94F828
:100520002430A7EB0B079B445FFA8BFBBBF1080F52
:100530002E44A844FFB284F824B0D5D1FFF7B8FF09
:100540000028D1D108E0266A06EB8306B042C9D064
:10055000FFF7AEFF0028C4D10020BDE8F88F0120CE
:10056000BDE8F88F6824002010B5202383F311889C
:100570001248C3680BB101F091FE0023104A0F48E6
:100580004FF47A7101F04EFE002383F311880D4C75
:10059000236813B12368013B2360636813B1636868
:1005A000013B6360084B1B7833B9636823B90220B1
:1005B00000F0D0FC3223636010BD00BF5424002043
:1005C0006905000898290020902400202DE9F041B9
:1005D000544B554953F8042F013201D1BDE8F08145
:1005E0008B42F7D1514C524B22689A4240F298808C
:1005F000504B9B6803F1006303F500339A4280F08F
:100600008F80002000F0EEFB4B4B0220187000F0B2
:100610009FFC4A4BD3F8E8200022C3F8E820D3F827
:100620001011C3F81021D3F81011D3F8EC10C3F84F
:10063000EC20D3F81411C3F81421D3F81411D3F813
:10064000F010C3F8F020D3F81811C3F81821D3F82C
:100650001811D3F8801041F00061C3F88010D3F86E
:10066000801021F00061C3F88010D3F88010D3F817
:10067000801041F00071C3F88010D3F8801021F091
:100680000071C3F88010D3F8803072B62C492D4B1E
:100690000B601D682468BFF34F8FBFF36F8F2A4B29
:1006A000C3F88420BFF34F8F5A6922F480325A6115
:1006B000BFF34F8FD3F88020C2F3C906C2F34E3286
:1006C0005201B70743F6E07E02EA0E08384631468B
:1006D000013948EA000CB1F1FF3FC3F874C200F1E0
:1006E0004040F5D1203A12F1200FEDD1BFF34F8FEA
:1006F000BFF36F8FBFF34F8FBFF36F8F5A6922F431
:1007000000325A610022C3F85022BFF34F8FBFF36B
:100710006F8F202383F31188AD4685F30888204727
:10072000BDE8F081FCFF01081C000208040002087B
:10073000FFFF0108482400209024002000440258B4
:1007400008ED00E00000020800ED00E02DE9F04FA8
:1007500097B0B54C00902022FF210EA8A66800F0AB
:1007600025FCB24A1378A346A3B9B1480121C3605E
:100770001170202383F31188C3680BB101F08EFD43
:100780000023AC4AAA484FF47A7101F04BFD0023D4
:1007900083F31188009BA84A03B11360A749009F07
:1007A00000230B70536099461C461D469846DFF89F
:1007B00088A2012000F0CCFB002F00F03A82DAF88A
:1007C0000030002B40F0358217B0BDE8F08F0220DA
:1007D000FFF758FE002840F02382009BB9F1000F7C
:1007E00008BF1F46964B1B88ADF82430022109A88C
:1007F00000F0C6FADBE74FF47A7000F055FA031EFA
:100800000193EADB0220FFF73DFE82460028E4D098
:10081000019B581E042800F20582DFE800F0030E59
:100820001114170016A8052340F8343D042100F0E8
:10083000A7FA54464FF0000855E004217A48F6E73D
:1008400004218048F3E704217F48F0E71C24204678
:1008500000F0CAFA04340990042109A800F090FAC3
:100860002C2CF4D1E5E7002DB7D0002CB5D0022018
:10087000FFF708FE0546002800F0D78101206F4CE5
:1008800000F0B0FA0220207000F062FB4FF0000987
:100890005FFA89FA504600F0B5FA074658B150465B
:1008A00000F0C0FA09F101090028F1D12C46A9464F
:1008B0000027664B97E701230220237000F046FBD8
:1008C0003E46DBF808309E4206D2304600F08CFAF5
:1008D0000130EBD10436F4E7574B002626705E60FA
:1008E000A9462C46374600F069FB15B1002C18BF0D
:1008F0000027FFF7CFFD5AE7002D3FF46EAF002C25
:100900003FF46BAF4D4B0220187000F021FB3220FA
:1009100000F0CAF9B0F1000AC0F287811AF00305AD
:1009200040F08381DBF8082006EB0A03934200F2D3
:100930007C81BAF5807F00F27881454B0193554563
:100940000DDA4FF47A7000F0AFF90290029A002AA3
:10095000C0F26B81019B029AEA540135EEE7C82090
:10096000FFF790FD0546002800F05F811F2E11D88B
:10097000C6F12004544528BF54460EAB26F00300B0
:1009800022463349184400F0E7FA2246FF21304856
:1009900000F00CFB4FEAAA0A5FFA8AF22C493046B3
:1009A000FFF796FD0446002800F0418106EB8A0619
:1009B000054698E70220FFF765FD00283FF40DAFDC
:1009C000FFF776FD00283FF408AF00229246DBF8DF
:1009D00008309A425AD21F2A1ED80E9B01331BD0D0
:1009E00022F0030316A90B4453F8203C099319483D
:1009F00043688BB3174800210DF1240E11F80E3017
:100A000083EA0A03DBB2013150F82330042983EA78
:100A10001A2AF3D10432DAE71046019200F0E4F921
:100A2000019A0990E3E700BF4824002094250020A4
:100A300054240020690500089829002090240020F3
:100A40005A4000084C240020502400205C4000083C
:100A5000942400209825002019464FF0080E11F02C
:100A6000010F4FEA51011FBF81F06D4181F4380140
:100A700081F4034181F02001BEF1010EEFD140F875
:100A800023100133B3F5807FE6D1B3E716A8042124
:100A900040F84CAD00F074F925E716A8002340F8A3
:100AA000343D642100F038F900287FF496AE02202E
:100AB000FFF7E8FC00283FF490AE099800F0C4F975
:100AC00016AB43F8480D04211846E3E716A80023A7
:100AD00040F8343D642100F01FF900287FF47DAE1A
:100AE0000220FFF7CFFC00283FF477AE099800F012
:100AF000ADF916AB43F8440DE5E70220FFF7C2FC61
:100B000000283FF46AAE00F0A7F916AB43F8400D99
:100B1000D9E70220FFF7B6FC00283FF45EAE09A932
:100B2000142000F09FF9824616A8042140F83CAD3D
:100B300000F026F9514609A8ACE7322000F0B4F8DD
:100B4000B0F1000AFFF649AE1AF0030F7FF445AE8C
:100B5000DBF808200AEB080393423FF63EAE022082
:100B6000FFF790FC00283FF438AE2AF0030AC24495
:100B7000C2453FF4B8AE404600F036F90421089073
:100B800008A800F0FDF808F10408F1E74FF47A70C6
:100B9000FFF778FC00283FF420AEFFF789FC00281F
:100BA0003FF487AE0E9B01330CD008220EA9002023
:100BB000FFF78EFC00283FF47CAE2022FF210EA818
:100BC00000F0F4F9FFF766FC364801F0E7FAFBE5C0
:100BD000002D3FF402AE002C3FF4FFAD16A8002319
:100BE00040F8343D642100F097F8824600287FF4F5
:100BF000F4AD0220FFF746FC00283FF4EEAD019073
:100C0000FFF748FC41F2883001F0C8FA099800F07B
:100C100019FA00F0D3F9019B57461C461D46C6E55C
:100C2000054660E64FF00008D7E52546D5E52C4699
:100C30003FE6002000F038F80290029B002BFFF600
:100C4000BBAD012000F082F9029B213B122B3FF645
:100C5000B0AD01A252F823F0CF070008F707000853
:100C600067080008B3070008B3070008B3070008C7
:100C7000F90800083B0B0008B50900089B0A0008AA
:100C8000CD0A0008FB0A0008B3070008130B000890
:100C9000B30700088D0B0008E7080008B307000839
:100CA000D10B0008A08601002DE9F34702AE002415
:100CB0004FF47A7506F8014D144FDFF8588045431C
:100CC00097F900305A1C5FFA84F901D0A34212D17F
:100CD00058F8240003680122D3F820A031462B469F
:100CE000D047012807D10A4B9DF8070083F80090F0
:100CF00002B0BDE8F0870134022CE1D14FF4FA7064
:100D000001F04CFA4FF0FF30F2E700BF0024002062
:100D1000BC290020704000082DE9F0474FF47A7597
:100D2000144FDFF8588006464D43002497F90030F1
:100D30005A1C5FFA84F901D0A34210D158F824005C
:100D400003680422D3F820A031462B46D04704285C
:100D500005D1094B83F800900020BDE8F0870134ED
:100D6000022CE3D14FF4FA7001F018FA4FF0FF3083
:100D7000BDE8F08700240020BC2900207040000856
:100D800030B4074B1A78074B53F822402368DD69CB
:100D9000054B0A46AC460146204630BC604700BFC2
:100DA000BC29002070400008A0860100F8B501F0C1
:100DB0003DFC094C094E0A4F20700025306823780D
:100DC000834207D901F02EFC336805440133BD424C
:100DD0003360F3D9F8BD00BFBD290020A029002051
:100DE000FFFF010001F0E4BC00F1006000F50030FD
:100DF0000068704700F10060920000F5003001F0DB
:100E000071BC0000054B1A68054B1B789B1A834286
:100E100002D9104401F006BC00207047A029002030
:100E2000BD29002038B5074D04462868204401F04C
:100E3000FFFB28B928682044BDE8384001F00ABC0F
:100E400038BD00BFA029002000207047014BC058CA
:100E5000704700BF00E8F11F014B1868704700BFE2
:100E60000010005CF0B5244B244C1B682788656893
:100E700094F90820C3F30B06BE424FEA134328D06F
:100E8000A789BE4206D101220C2505FB02446568F4
:100E900094F9082041F20104A3421CD041F203045A
:100EA000A3421AD042F20104A34218D042F2030432
:100EB000A34208BF5622441E0C44013D0B46A342E8
:100EC00017D215F9016F581C5EB1034600F8016C8A
:100ED000F5E70022D8E75A22EDE75922EBE758223E
:100EE000E9E72C2584421D7001D9981C5A70401ADC
:100EF000F0BD1846FBE700BF0010005C0424002092
:100F0000104B5B8841F201018B429AB211D041F241
:100F100003018B420FD042F201039A420DD042F2FC
:100F200003039A420BD10323074A02EB8303D878C9
:100F300070470023F8E70123F6E70223F4E70020D7
:100F4000704700BF0010005C604000087047000060
:100F5000704700007047000010B50023934203D093
:100F6000CC5CC4540133F9E710BD000030B5441E19
:100F700014F9010F0B4660B193F90050854201F15D
:100F8000010106D11AB993F90020801A30BD013A47
:100F9000EEE7002AF7D1104630BD000002460346B6
:100FA000981A13F9011B0029FAD17047024403462D
:100FB000934202D003F8011BFAE77047024B1A78FC
:100FC000024B1A70704700BFBC290020002400208B
:100FD00038B5164C164D204600F012FC2946204626
:100FE00000F03AFC2D681348D5F89020D2F8043868
:100FF00043F00203C2F8043801F0D0F80E49284645
:1010000000F03AFDD5F890200C48D2F804380C498D
:1010100023F00203C2F80438A0424FF4E1330B601E
:1010200003D0BDE8384000F049BB38BDEC2E0020AD
:101030005041000840420F007C410008402A002037
:10104000A429002038B50B4B1A780B4B53F82240DB
:101050000A4B9C4205460CD0094B00211846182229
:10106000FFF7A4FF056001462046BDE8384000F0C8
:1010700025BB38BDBC29002070400008EC2E0020A4
:10108000A4290020FEE7000000B59BB0EFF3098122
:1010900068226846FFF760FFEFF30583034B9A6B06
:1010A0009A6A9A6A9A6A9A6A9B6AFEE700ED00E079
:1010B00000B59BB0EFF3098168226846FFF74CFF4B
:1010C000EFF30583044B9A6B9A6A9A6A9A6A9A6A52
:1010D0009A6A9B6AFEE700BF00ED00E000B59BB096
:1010E000EFF3098168226846FFF736FFEFF30583C7
:1010F000034B5A6B9A6A9A6A9A6A9A6A9B6AFEE7E3
:1011000000ED00E0002304491A465A50C81808337D
:10111000802B4260F9D17047C0290020024A136831
:1011200043F0C0031360704700780040044B5A68D6
:1011300010439A6858600AB1181D1047704700BFE5
:10114000402A00202DE9F84F404EF56D2F68EC69DC
:101150002C62210718D014F0080F0CBF002080204B
:10116000E20748BF40F02000A30748BF40F040001E
:10117000610748BF40F48070202383F31188FFF794
:10118000D5FF002383F31188E20509D5202383F3DB
:1011900011884FF40070FFF7C9FF002383F3118813
:1011A000DFF8A8A04FF020094FF0000B14F0200842
:1011B00032D13B0615D5DFF898A04FF02009200664
:1011C0000FD589F31188504600F0ECF9002830DA89
:1011D0000820FFF7ABFF27F080032B60002383F389
:1011E000118879060DD562060BD5202383F311886B
:1011F000F26C336D9A4201D1336C03BB002383F34D
:101200001188E30604D5B26E13690BB15069984793
:10121000BDE8F84F01F062BB89F31188AB8C96F8FA
:1012200064105046194000F057FA8BF31188EC69AE
:10123000BCE780B2288588F31188EC69BFE71020ED
:1012400027F04007FFF772FF2F60D7E7402A002002
:10125000782A002013B5104C204600F023FA04F140
:101260001400009400234FF400720C4900F0E4F8DD
:1012700004F1380000940A4B0A494FF4007200F060
:101280005DF9094BE365094B23660C21522002B03E
:10129000BDE8104000F05EB8402A0020AC2A0020D3
:1012A0001D110008AC2C00200078004000E1F5057D
:1012B000254B002908BF1946037C8166012B30B5F8
:1012C00011D1224B98420ED1214BD3F8E82042F0A5
:1012D0008042C3F8E820D3F8102142F08042C3F8DE
:1012E0001021D3F810310A68036EC46D03EB52036A
:1012F000B3FBF2F34A68150442BF23F0070503F07D
:10130000070343EA4503E3608B6843F040036360EF
:10131000CB6843F00103A36042F4967343F00103EA
:10132000236051054FF0FF33236205D512F01022E0
:1013300005D0B2F1805F04D080F8643030BD7F23E7
:10134000FAE73F23F8E700BF94400008402A002056
:101350000044025800F1604300F01F02400903F509
:10136000614309018000C9B200F1604083F80013B5
:1013700000F5614001239340C0F88031036070475D
:10138000F8B5154682680669AA420B46816938BFDE
:101390008568761AB542044607D218462A46FFF7F2
:1013A000DBFDA3692B44A3610DE011D93246184639
:1013B000FFF7D2FDAF1B3A46E1683044FFF7CCFDA2
:1013C000E2683A44A261A3685B1BA3602846F8BDAB
:1013D00018462A46FFF7C0FDE368E4E783682DE975
:1013E000F041044693421546266938BF8568406936
:1013F000361AB5420F4606D22A46FFF7ADFD63699D
:101400002B4463610DE012D93246A5EB0608FFF7C5
:10141000A3FD4246B919E068FFF79EFDE268424429
:101420006261A3685B1BA3602846BDE8F0812A4681
:10143000FFF792FDE368E4E710B50A440024C361B6
:10144000029B006040608460C16081614161026113
:10145000036210BD08B582694369934201D1826875
:1014600082B98268013282605A1C426119704269F5
:1014700003699A4201D3C3684361002100F0AAFEC8
:10148000002008BD4FF0FF3008BD000070B52023DC
:1014900004460E4683F31188A568A5B1A368A26926
:1014A000013BA360531CA36115782269934224BFBA
:1014B000E368A361E3690BB120469847002383F3F7
:1014C0001188284670BD3146204600F073FE002882
:1014D000E2DA85F3118870BD2DE9F74F05460F4616
:1014E00090469A46D0F81C90202686F311884FF03B
:1014F000000B144664B1224639462846FFF740FFE8
:10150000034668B95146284600F054FE0028F1D041
:10151000002383F31188A8EB040003B0BDE8F08F2B
:10152000B9F1000F03D001902846C847019B8BF307
:101530001188E41A1F4486F31188DBE7C1608161DA
:101540004161C3611144009B0060406082600161A1
:1015500003627047F8B504460E461746202383F30E
:101560001188A568A5B1A368013BA36063695A1CF3
:1015700062611E70236962699A4224BFE3686361F5
:10158000E3690BB120469847002080F31188F8BD2D
:101590003946204600F00EFE0028E2DA85F3118875
:1015A000F8BD0000836942699A4210B501D1826892
:1015B0007AB98268013282605A1C82611C780369A0
:1015C0009A4201D3C3688361002100F003FE2046E4
:1015D00010BD4FF0FF3010BD2DE9F74F05460F4607
:1015E00090469A46D0F81C90202686F311884FF03A
:1015F000000B144664B1224639462846FFF7EEFE3A
:10160000034668B95146284600F0D4FD0028F1D0C1
:10161000002383F31188A8EB040003B0BDE8F08F2A
:10162000B9F1000F03D001902846C847019B8BF306
:101630001188E41A1F4486F31188DBE702684368C7
:101640001143016003B11847704700001430FFF7E1
:1016500043BF00004FF0FF331430FFF73DBF0000E1
:101660003830FFF7B9BF00004FF0FF333830FFF7D5
:10167000B3BF00001430FFF709BF00004FF0FF3187
:101680001430FFF703BF00003830FFF763BF0000DE
:101690004FF0FF323830FFF75DBF00000020704789
:1016A000FFF7D8BD044B0360002343608360C36031
:1016B00001230374704700BFAC40000810B520231D
:1016C000044683F31188FFF7F3FD022323740023FC
:1016D00083F3118810BD000038B5C36904460D4678
:1016E0001BB904210844FFF7A9FF294604F114009F
:1016F000FFF7B0FE002806DA201D4FF48061BDE838
:101700003840FFF79BBF38BD026843681143016052
:1017100003B118477047000013B5446BD4F89434F4
:101720001A681178042915D1217C022912D119795E
:10173000128901238B4013420CD101A904F14C0002
:1017400001F08AFFD4F89444019B21790246206875
:1017500000F0EAF902B010BD143001F00DBF000036
:101760004FF0FF33143001F007BF00004C3001F0A0
:10177000DFBF00004FF0FF334C3001F0D9BF000055
:10178000143001F0DBBE00004FF0FF31143001F0E7
:10179000D5BE00004C3001F0ABBF00004FF0FF326F
:1017A0004C3001F0A5BF0000D0F8942438B5136880
:1017B00019780429054601D0012038BD017C022991
:1017C000FAD112795C89012090400440F4D105F1EE
:1017D000140001F06DFE02460028EDD0D5F89454B7
:1017E0004FF480732868697900F08CF9204638BD81
:1017F000406BFFF7D9BF0000002070477047000022
:101800007FB5124B0360002343608360C3600125F2
:1018100002260F4B057404460290019300F18402E6
:10182000294600964FF48073143001F01DFE094BD9
:101830000193029400964FF4807304F523722946B5
:1018400004F14C0001F0E4FE04B070BDD440000887
:10185000F1170008191700080A68202383F311887C
:101860000B790B3342F823004B79133342F82300F2
:101870008B7913B10B3342F8230002230374C0F8B1
:101880009414002383F311887047000038B5037F58
:10189000044613B190F85430ABB9201D0125022144
:1018A000FFF732FF04F1140025776FF0010100F01B
:1018B0009DFC84F8545004F14C006FF00101BDE828
:1018C000384000F093BC38BD10B501210446043007
:1018D000FFF71AFF0023237784F8543010BD00006F
:1018E00038B504460025143001F0D6FD04F14C0053
:1018F000257701F0A5FE201D84F854500121FFF743
:1019000003FF2046BDE83840FFF74EBF90F8803017
:1019100003F06003202B19D190F88120212A0AD0EE
:10192000222A4FF000030ED0202A0FD1084A426726
:101930000722826704E0064B43670723836700237F
:10194000C3670120704743678367F9E7002070474A
:101950001C240020D0F8943437B51A681178042973
:1019600004461AD1017C022917D119791289012361
:101970008B40134211D100F14C05284601F020FFA5
:1019800058B101A9284601F067FED4F89444019BA0
:1019900021790246206800F0C7F803B030BD00008E
:1019A00001F10B03F7B550F8234005460E46F4B19C
:1019B000202383F3118805EB8607201D0821FFF7FC
:1019C000A3FEFB685B691B684C3413B1204601F031
:1019D00051FE01A9204601F03FFE024648B1019B9D
:1019E0003146284600F0A0F8002383F3118803B0A5
:1019F000F0BDFB685A691268002AF5D01B8A013BCA
:101A00001340F1D105F18002EAE70000133138B547
:101A100050F82140DCB1202383F31188D4F89424BA
:101A20001368527903EB8203DB689B695D6845B1FB
:101A300004216018FFF768FE294604F1140001F044
:101A400041FD2046FFF7B0FE002383F3118838BD27
:101A50007047000001F03CB801230370002343608D
:101A600000F1300200F1500142F8043B8A42D36198
:101A7000FAD103814381704738B50446202383F3AC
:101A800011880025416000F10C0300F1300243F899
:101A9000045B9342FBD1204601F03CF80223237003
:101AA00085F3118838BD000070B500EB8103054651
:101AB0005069DA600E46144618B110220021FFF773
:101AC00075FAA06918B110220021FFF76FFA3146AC
:101AD0002846BDE8704001F02FB90000038903F0EB
:101AE00001030381438903F00103438100F13002C4
:101AF00000F11003002143F8041B9342FBD101F0D5
:101B0000B3B90000F0B400EB81044789E468012513
:101B1000A4698D403D43458123600023A26063603A
:101B2000F0BC01F0CFB90000F0B400EB81040789EC
:101B3000E468012564698D403D43058123600023ED
:101B4000A2606360F0BC01F047BA0000022310B548
:101B5000037000230446A0F8883080F88A3080F8AB
:101B60008B300381438100F10C0200F1300142F817
:101B7000043B8A42FBD184F87030204601F070F8B3
:101B800063681B6823B120460021BDE81040184758
:101B900010BD0000436802781B6880F88C20052285
:101BA00002700BB10421184770470000436890F899
:101BB0008C201B6802700BB105211847704700008C
:101BC00090F8703070B5044613B1002380F870307F
:101BD00004F18002204601F06BF963689B6863BBE7
:101BE00094F8805015F0600615D194F8813005F016
:101BF0007F0545EA032540F202339D4200F00E8145
:101C00005BD8022D00F0DC803FD8002D00F08780EB
:101C1000012D00F0CF800021204601F001FC0021C1
:101C2000204601F0F1FB63681B6813B106212046D2
:101C30009847062384F8703070BD204698470028E6
:101C4000CED094F8872094F8863043EA0223A26F1E
:101C5000934238BFA36794F98030A56F002B4FF0F3
:101C6000200380F2FD80002D00F0EC80092284F832
:101C7000702083F311880021A36F626F2046FFF765
:101C800053FF002383F3118870BDB5F5817F00F009
:101C9000B180B5F5407F49D0B5F5807FBBD194F8D0
:101CA0008230012BB7D1B4F8883023F00203A4F8B6
:101CB00088306667A667E667C3E740F201639D4226
:101CC0001ED8B5F5C06F3BD2B5F5A06FA3D1B4F85F
:101CD0008030B3F5A06F0ED194F8823084F88A304A
:101CE000204601F01BF863681B6813B101212046F0
:101CF00098470323237000236367A367E367A0E784
:101D0000B5F5106F32D040F602439D4252D0B5F582
:101D1000006F80D104F18B036367012324E004F199
:101D2000880363670223A367E5678AE794F8823034
:101D3000012B7FF470AFB4F8883043F00203B6E7AC
:101D400094F88520616894F884304D6894F8831085
:101D500043EA0223204694F88220A84700283FF453
:101D60005AAF436863670368A367A4E72378042B2B
:101D700010D1202383F311882046FFF7AFFE86F3AE
:101D80001188636884F88B601B68032121700BB194
:101D90002046984794F88230002BACD084F88B30E2
:101DA0000423237063681B68002BA4D00221204603
:101DB0009847A0E7374B63670223A36700239DE79B
:101DC00094F8841011F0800F204601F00F010ED01E
:101DD00001F060F8012806D002287FF41CAF2E4BDA
:101DE0006367A06767E72D4B6367A56763E701F04B
:101DF00043F8EFE794F88230002B7FF40CAF94F8AF
:101E0000843013F00F013FF476AF1A06204602D556
:101E100001F01EFB6FE701F00FFB6CE794F88230D6
:101E2000002B7FF4F8AE94F8843013F00F013FF4E8
:101E300062AF1B06204602D501F0F2FA5BE701F023
:101E4000E3FA58E7142284F8702083F311882B46B4
:101E50002A4629462046FFF755FE85F3118870BDB6
:101E60005DB1152284F8702083F311880021A36FDF
:101E7000626F2046FFF746FE03E70B2284F87020CE
:101E800083F311882B462A4629462046FFF74CFE4D
:101E9000E3E700BF04410008FC40000800410008DF
:101EA00038B590F870300446152B29D8DFE803F0D8
:101EB0003E28282828283E28280B29392828282881
:101EC000282828283E3E90F8871090F88620836FB7
:101ED00042EA01229A4214D9C268128AB3FBF2F58F
:101EE00002FB15356DB9202383F311882B462A4652
:101EF0002946FFF719FE85F311880A2384F870300C
:101F000038BD142384F87030202383F31188002314
:101F10001A4619462046FFF7F5FD002383F3118882
:101F200038BDC36F03B198470023E7E7002101F0F4
:101F300077FA0021204601F067FA63681B6813B145
:101F40000621204698470623D8E7000090F8702025
:101F5000152A38B5044622D80123934040F6416241
:101F600013421DD113F480150FD19B0217D50B23FB
:101F700080F87030202383F311882B462A462946A7
:101F8000FFF7D2FD85F3118838BDC3689B695B6894
:101F90002BB9C36F03B19847002384F8703038BD64
:101FA000002101F03DFA0021204601F02DFA63687E
:101FB0001B6813B10621204698470623EDE7000071
:101FC000024B00221B605B609A607047AC2E0020C1
:101FD000002303748268054B1B6899689142FBD209
:101FE0005A6803604260106058607047AC2E002051
:101FF00008B5202383F31188037C032B05D0042B21
:102000000DD02BB983F3118808BD436900221A60F3
:102010004FF0FF334361FFF7DBFF0023F2E790E867
:102020000C001A6002685360F2E70000002303749A
:102030008268054B1B6899689142FBD85A68036017
:102040004260106058607047AC2E0020054B196943
:102050000874186802681A605360186101230374D9
:10206000FEF7B2B9AC2E002030B54B1C87B0054648
:102070000A4C10D023690A4A01A800F0D3F8284678
:10208000FFF7E4FF049B13B101A800F007F92369EF
:10209000586907B030BDFFF7D9FFF8E7AC2E002034
:1020A000F11F000838B50C4D41612B6981689A68B1
:1020B0009142044603D8BDE83840FFF789BF18466F
:1020C000FFF786FF01232C61014623742046BDE8FB
:1020D0003840FEF779B900BFAC2E0020044B1A68D7
:1020E0001B6990689B68984294BF0020012070474C
:1020F000AC2E002010B5084C236820691A682260B5
:102100005460012223611A74FFF790FF0146206991
:10211000BDE81040FEF758B9AC2E002082600222C4
:1021200002740022427470478368A3F17C0243F872
:102130000C2C026943F83C2C426943F8382C074ABE
:1021400043F81C2CC26843F8102C022203F8082C18
:10215000002203F8072CA3F118007047E1030008E0
:1021600010B5202383F31188FFF7DEFF002104461A
:10217000FFF798FF002383F31188204610BD00006D
:10218000024B1B6958610F20FFF760BFAC2E002087
:10219000202383F31188FFF7F3BF000008B5014641
:1021A000202383F311880820FFF75EFF002383F3C9
:1021B000118808BD49B1064B42681B6918605A6016
:1021C000136043600420FFF74FBF4FF0FF307047AC
:1021D000AC2E00200368984206D01A680260506056
:1021E00059611846FFF7F4BE7047000038B5044641
:1021F0000D462068844200D138BD036823605C60CE
:102200004561FFF7E5FEF4E7054B03F114025A615F
:102210009A614FF0FF32DA6100221A62704700BF04
:10222000AC2E0020F8B503611A4BC2605C6A1A4BF1
:102230001A46022952F8145F38BF02219542064619
:102240001F460AD1586198611C6205604560816033
:102250000819BDE8F84001F0D5BA186AAB68241A2D
:102260000C1902D3E41A2D6804E09C4202D22044E7
:1022700001F0D8FAAB689C42F4D86B6873603560A3
:102280001E606E60B460A9684FF0FF33091BA9603F
:10229000FB61F8BD000C0040AC2E002010B41A4CBD
:1022A000234653F8141F814210D0416802680A6027
:1022B000026851609A424FF00001C16003D09368F8
:1022C00081680B4493605DF8044B70470A68626153
:1022D00000209A425360C86003D15DF8044B01F0BE
:1022E0009BBA9368886803449360084A206A526ADC
:1022F000121A9342E7D9991A012998BF931C1844DE
:102300005DF8044B01F08EBAAC2E0020000C0040AA
:1023100000207047FEE70000704700004FF0FF30DC
:1023200070470000022906D0032906D0012906487B
:1023300018BF0020704705487047032A9ABF044819
:1023400000EBC20000207047D84100088C41000813
:102350002424002070B59AB001AD064608462946EF
:10236000144600F095F82846FEF718FEC0B2431C4C
:102370005B0086E818002370032363700023023497
:102380001946DAB2904204F1020401D81AB070BDC5
:10239000EA5C04F8022C04F8011C0133F1E70000A8
:1023A00008B5202383F311880348FFF7D3FA0023ED
:1023B00083F3118808BD00BFEC2E002010B5044641
:1023C000052916D8DFE801F016150316161D20237F
:1023D00083F311880E4A0121FFF766FB20460D4A60
:1023E0000221FFF761FB0C48FFF77AFA002383F321
:1023F000118810BD202383F311880748FFF746FAA0
:10240000F4E7202383F311880348FFF75DFAEDE733
:10241000084100082C410008EC2E002038B50C4D76
:102420000C4C0D492A4604F10800FFF793FF05F113
:10243000CA0204F110000949FFF78CFF05F5CA72C2
:1024400004F118000649BDE83840FFF783BF00BF1C
:10245000B4330020242400205841000865410008BE
:102460007341000870B5044608460D46FEF796FD18
:10247000C6B22046013403780BB9184670BD324607
:102480002946FEF773FD0028F3D1012070BD00003E
:102490002DE9F84F05460C46FEF780FD2B49C6B2E4
:1024A0002846FFF7DFFF08B10336F6B22849284671
:1024B000FFF7D8FF08B11036F6B2632E0DD8DFF85B
:1024C0008C80DFF88C90234FDFF890A0DFF890B07D
:1024D0002E7846B92670BDE8F88F29462046BDE81B
:1024E000F84F01F0B1BD252E2CD1072241462846D8
:1024F000FEF73CFD58B9DBF800302360DBF8043010
:102500006360BBF80830238107350A34E0E708220E
:1025100049462846FEF72AFDA0B90F4BA21C13F826
:10252000011F09095345C95D02F8021C197801F021
:102530000F0102F10202C95D02F8031CEFD1183449
:102540000835C5E7267001350134C1E7F8410008B8
:10255000734100080B420008FFE7F11F0BE8F11F71
:1025600000420008BFF34F8F044B1A695107FCD19A
:10257000D3F810215207F8D1704700BF0020005255
:1025800008B50D4B1B78ABB9FFF7ECFF0B4BDA68C6
:10259000D10741BF0A4A5A6002F188325A60D3F823
:1025A0000C21D20741BF064AC3F8042102F1883248
:1025B000C3F8042108BD00BF1236002000200052DD
:1025C0002301674508B5114B1B78F3B9104B1A6905
:1025D000510742BFDA6842F04002DA60D3F81021B6
:1025E000520742BFD3F80C2142F04002C3F80C213D
:1025F000FFF7B8FF064BDA6842F00102DA60D3F861
:102600000C2142F00102C3F80C2108BD1236002053
:10261000002000520F289ABF00F58060400400207F
:10262000704700004FF400307047000010207047E2
:102630000F2808B50BD8FFF7EDFF00F5003302684F
:10264000013204D104308342F9D1012008BD0020B9
:1026500008BD00000F2810B504463FD8FFF782FFE1
:10266000FFF78EFF1E484FF0FF33072C4361C0F881
:1026700014311DD80361FFF775FF230243F02403D3
:10268000C360C36843F08003C36003695A07FCD486
:10269000FFF768FF2046FFF7BDFF4FF4003100F061
:1026A000E9F8FFF78FFF2046BDE81040FFF7C0BFF5
:1026B000C0F81031FFF756FFA4F108031B0243F0E6
:1026C0002403C0F80C31D0F80C3143F08003C0F87B
:1026D0000C31D0F810315B07FBD4D9E7002010BDD6
:1026E000002000522DE9F84F40EA0203DB060646BF
:1026F000884691464AD1FFF743FFDFF8B0B0454620
:10270000A9EB050343441F2B04D8FFF75BFF01200F
:10271000BDE8F88F204A2148214F06F178439342C3
:10272000204B214A98BF9A4603F1FC0386BF1F46FF
:1027300092465846FFF716FF4FF0FF3303603B68A1
:1027400043F002033B6005F11C022B1FA6EB050EB4
:10275000DAF8004014F00504FAD153F8041F4EF8DB
:1027600003109342F4D1BFF34F8FFFF7FBFE4FF0FE
:10277000FF3303603B6823F002033B6020222946BD
:10278000304601F051FC20B1FFF71CFF0020BDE8EE
:10279000F88F20362035B3E7FFFF0F0014210052D9
:1027A0000C20005210200052102100521420005220
:1027B00010B5084C237828B153B9FFF7E1FE012387
:1027C000237010BD23B12070BDE81040FFF7FABEA2
:1027D00010BD00BF1236002010B50244064B04396C
:1027E000D2B2904200D110BD441C00B253F8200078
:1027F00041F8040FE0B2F4E7504000580F4B30B5F9
:102800001C6F240405D41C6F1C671C6F44F4004427
:102810001C670B4C236843F4807323600244094B0C
:102820000439D2B2904200D130BD441C00B251F8FC
:10283000045F43F82050E0B2F4E700BF00440258C0
:10284000004802585040005807B5012201A9002055
:10285000FFF7C2FF019803B05DF804FB07B502A9BA
:10286000012241F8040D0020FFF7C8FF03B05DF816
:1028700004FB00000144BFF34F8F064B884204D392
:10288000BFF34F8FBFF36F8F7047C3F85C022030E8
:10289000F4E700BF00ED00E0034B1B685B0142BFA3
:1028A000024B01221A707047D044025813360020A0
:1028B000014B1878704700BF13360020064A536852
:1028C00023F001035360EFF30983683383F309882E
:1028D000002383F31188704730EF00E010B5202308
:1028E00083F31188104B5B6813F4006318D0F1EE8A
:1028F000103AEFF309844FF0807344F84C3C0B4BD3
:10290000DB6844F8083CA4F1680383F30988FFF707
:10291000E5FB18B1064B44F8503C10BD054BFAE7F7
:1029200083F3118810BD00BF00ED00E030EF00E040
:10293000F1030008F4030008F0B5BFF34F8FBFF3B5
:102940006F8F1D4B0021C3F85012BFF34F8FBFF3A1
:102950006F8F5A6942F400325A61BFF34F8FBFF351
:102960006F8FC3F88410BFF34F8FD3F88020C2F36A
:10297000C904C2F34E325201A50743F6E07602EADB
:10298000060E284621464EEA00070139C3F8607258
:102990004F1C00F14040F6D1203A12F1200FEED149
:1029A000BFF34F8F5A6942F480325A61BFF34F8FA1
:1029B000BFF36F8FF0BD00BF00ED00E0FEE7000049
:1029C000084A094B09498B4204D3094A0021934222
:1029D00005D3704752F8040F43F8040BF3E743F8AC
:1029E000041BF4E7F8430008603900206039002038
:1029F00060390020D0F8943030B500229D68D0F8BE
:102A0000904011464FF0FF3004EB421301329542E3
:102A1000C3F80019C3F81019C3F80809C3F8001B5C
:102A2000C3F8101BC3F8080BEED24FF00113C4F823
:102A30001C3830BD00EB81032DE9F04FD3F80CE0DA
:102A4000DEF814404F1CD4F800C03F034FEA411891
:102A50006568D0F8902065450AD3D2F83438012053
:102A600000FA01F123EA0101C2F83418BDE8F08F41
:102A7000BEF81060ACEB0503B34228BF334602EB4F
:102A80000806D6F81869B6B2B3EB860F13D8A66855
:102A90003A44A6F1040A99465AF804BFC2F800B0B5
:102AA000B9F1040F02D9A9F10409F5E71E442B443A
:102AB000A6606360CCE70020BDE8F08F890141F09B
:102AC0002001016103699B06FCD4122000F03CBF89
:102AD00010B50A4C2046FEF7BFFF094BC4F89030F2
:102AE000084BC4F89430084C2046FEF7B5FF074B5E
:102AF000C4F89030064BC4F8943010BD1436002052
:102B00000000084040420008B036002000000440A9
:102B10004C4200080378012B70B505465DD1494B46
:102B2000D0F89040984259D1474BD3F8D82042F082
:102B30000062C3F8D820D3F8002142F00062C3F845
:102B40000021D3F80021D3F8802042F00062C3F8BE
:102B50008020D3F8802022F00062C3F88020D3F8D0
:102B600080300E216520FEF7F5FB384BE360384BD3
:102B7000C4F800380023C4F8003EC0232360D5F811
:102B800090604FF40413A3633369002BFCDA012334
:102B900033610C2000F0D8FE3369DB07FCD412202F
:102BA00000F0D2FE3369002BFCDA0026A66028462E
:102BB000FFF720FF6B68C4F81068DB68C4F814687E
:102BC000C4F81C68002B3AD1224BA3614FF0FF33AD
:102BD0006361A36843F00103A36070BD1E4B98427C
:102BE000C8D1194BD3F8D82042F00072C3F8D820CE
:102BF000D3F8002142F00072C3F80021D3F800217D
:102C0000D3F8802042F00072C3F88020D3F88020EF
:102C100022F00072C3F88020D3F88020D3F8D820A7
:102C200022F08062C3F8D820D3F8002122F080621D
:102C3000C3F80021D3F800310E214D2093E7074B54
:102C4000C3E700BF1436002000440258401400407F
:102C500003002002003C30C0B0360020083C30C0E9
:102C6000F8B5D0F89040054600212046FFF726FF32
:102C7000D5F8941000234FF001128F68C4F834384F
:102C80004FF00066C4F81C284FF0FF3004EB4312ED
:102C900001339F42C2F80069C2F8006BC2F808090C
:102CA000C2F8080BF2D20B68D5F89020C5F898301E
:102CB000636210231361166916F01006FBD112200F
:102CC00000F042FED4F8003823F4FE63C4F8003864
:102CD000A36943F4402343F01003A3610923C4F81C
:102CE0001038C4F814380B4BEB604FF0C043C4F8F5
:102CF000103B094BC4F8003BC4F81069C4F8003914
:102D0000D5F8983003F1100243F48013C5F89820E9
:102D1000A362F8BD1C42000840800010D0F890204B
:102D200090F88A10D2F8003823F4FE6343EA0113C6
:102D3000C2F80038704700002DE9F0410EB200EBF8
:102D400086080D46D8F80C100F6807F00303022B15
:102D500053D0032B53D03F4A3F4F012B18BF174688
:102D6000D0F890404FEA451E04EB0E030022C3F852
:102D7000102B8A6905F1100C002A42D04A8A05F10D
:102D800058035B013A43E2500123D4F81C2803FAAC
:102D90000CF31343A6444A69C4F81C380023CEF848
:102DA000103905F13F03002A3BD00A8A898B92082B
:102DB000012988BF4A43D0F8981004EB83035618C2
:102DC00041EA0242C0F8986029465A602046FFF75F
:102DD00075FED8F80C301B8A43EA85531F4305F172
:102DE00048035B01E7500123D4F81C2803FA05F5DA
:102DF0001543C4F81C58BDE8F081184FB0E7184FD0
:102E0000AEE704EB4613D3F8002B22F40042C3F8DC
:102E1000002BD4F81C28012303FA0CF322EA030345
:102E2000B8E704EB83030F4A5A6004EB46162946C1
:102E30002046FFF743FED6F8003923F40043C6F8D6
:102E40000039D4F81C38012202FA05F523EA0505F9
:102E5000CFE700BF00800010008004100080081041
:102E600000800C1000040002D0F894201268C0F812
:102E70009820FFF7BFBD00005831D0F890304901CD
:102E80005B5813F4004004D013F4001F14BF01205A
:102E9000022070474831D0F8903049015B5813F454
:102EA000004004D013F4001F14BF0120022070471B
:102EB00000EB8101CB68196A0B6813604B685360A3
:102EC0007047000000EB810330B5DD68AA69136824
:102ED000D36019B9402B84BF402313606B8A1468F8
:102EE000D0F890201C44013CB4FBF3F4634303335B
:102EF00023F0030302EB411043EAC44343F0C04311
:102F0000C0F8103B2B6803F00303012B09B20ED16C
:102F1000D2F8083802EB411013F4807FD0F8003B60
:102F200014BF43F0805343F00053C0F8003B02EB62
:102F30004112D2F8003B43F00443C2F8003B30BDDD
:102F40002DE9F041D0F8906006EB41130546D3F827
:102F5000087BC3F8087B3A070C4608D5D6F8143826
:102F60001B0704D500EB8103DB685B689847FA0711
:102F70002FD5D6F81438DB072BD505EB8403D96899
:102F8000CCB98B69488A5E68B6FBF0F200FB12622E
:102F90008AB91868DA6890420DD2121A83E81400D0
:102FA000202383F3118821462846FFF78BFF84F303
:102FB0001188BDE8F081012303FA04F26B8923EA4A
:102FC00002036B81CB6823B121462846BDE8F0415E
:102FD0001847BDE8F081000000EB810370B5DD68A3
:102FE000D0F890306C692668E6604A0156BB1A44F6
:102FF0004FF40020C2F810092A6802F00302012AE7
:103000000AB20ED1D3F8080803EB421410F4807F03
:10301000D4F8000914BF40F0805040F00050C4F8CC
:10302000000903EB4212D2F8000940F00440C2F854
:103030000009D3F83408012202FA01F10143C3F870
:10304000341870BD19B9402E84BF4020206020681C
:103050002E8A841940F00050013C1A44B4FBF6F467
:1030600040EAC440C6E700002DE9F041D0F8906086
:1030700006EB41130446D3F80879C3F80879FB0737
:103080000D461CD5D6F81038DA0718D500EB8103A9
:10309000D3F80CE0DEF81430D3F800C0DA689445B9
:1030A0001BD2A2EB0C024FF000081A60C3F8048098
:1030B000202383F31188FFF78FFF88F311883B06E5
:1030C00018D5D6F834280123AB40134212D0294634
:1030D0002046BDE8F041FFF7ADBC012303FA01F241
:1030E000038923EA02030381DEF80830002BE6D0CF
:1030F0009847E4E7BDE8F0812DE9F047D0F890501B
:103100006E69AB691E40F10404466E6103D5BDE8EB
:10311000F047FEF71BBD002E11DAD5F8003E9A07E6
:103120001EBFD5F8003E23F00303C5F8003ED5F8D6
:10313000043823F00103C5F80438FEF737FD3305E2
:1031400002D52046FEF726FDB7040CD5D5F8083881
:1031500013F0060FEB6823F470530CBF43F41053C5
:1031600043F4A053EB60300704D56368DB680BB110
:1031700020469847F10200F1A180B2020BD5D4F8A5
:10318000908000274FF00109D4F894309B68F9B281
:103190008B4280F0D280F3061AD5D4F890100A6AD8
:1031A000C2F30A1702F00F0302F4F012B2F5802FF7
:1031B00000F0EC80B2F5402F0AD104EB830301F557
:1031C0008051DB68186A00231A469F4240F0D18084
:1031D0003003D5F8185835D5E90303D5002120462A
:1031E000FFF7AEFEAA0303D501212046FFF7A8FE94
:1031F0006B0303D502212046FFF7A2FE2F0303D560
:1032000003212046FFF79CFEE80203D50421204657
:10321000FFF796FEA90203D505212046FFF790FE91
:103220006A0203D506212046FFF78AFE2B0203D54A
:1032300007212046FFF784FEEF0103D50821204631
:10324000FFF77EFE700340F1C980E90703D5002136
:103250002046FFF709FFAA0703D501212046FFF703
:1032600003FF6B0703D502212046FFF7FDFE2F0762
:1032700003D503212046FFF7F7FEEE0603D5042110
:103280002046FFF7F1FEA80603D505212046FFF7EB
:10329000EBFE690603D506212046FFF7E5FE2A0668
:1032A00003D507212046FFF7DFFEEB0540F19680AE
:1032B00020460821BDE8F047FFF7D6BED4F890902D
:1032C0004FF000084FF0010AD4F894309B685FFA81
:1032D00088F7BB42FFF451AF09EB4713D3F800293D
:1032E00002F44022B2F5802F24D1D3F80029002A1D
:1032F00020DAD3F8002942F09042C3F80029D3F82D
:103300000029002AFBDB3946D4F89000FFF7D6FBF2
:1033100022890AFA07F322EA0303238104EB8703D5
:10332000DB689B6813B139462046984739462046EA
:10333000FFF780FB08F10108C6E708EB4112D2F85D
:10334000003B03F44023B3F5802F10D1D2F8003BAB
:10335000002B0CDA628909FA01F322EA0303638184
:1033600004EB8103DB68DB680BB12046984701372B
:103370000AE713F0030F08BF0A68072B98BF027013
:1033800003F101039CBF120A01301EE704EB830323
:1033900001F58051DA6890690268D0F808C0406889
:1033A000A2EB000E00221046974208D1DB689B6911
:1033B0009A683A449A605A6817445F6008E712F0C6
:1033C000030F08BF0868964588BF8CF8000002F11B
:1033D000010284BF000A0CF1010CE5E7BDE8F087AB
:1033E00008B50348FFF788FEBDE80840FFF776BA46
:1033F0001436002008B50348FFF77EFEBDE80840FC
:10340000FFF76CBAB0360020D0F8903003EB4111D2
:10341000D1F8003B43F40013C1F8003B70470000B3
:10342000D0F8903003EB4111D1F8003943F4001388
:10343000C1F8003970470000D0F8903003EB41111B
:10344000D1F8003B23F40013C1F8003B70470000A3
:10345000D0F8903003EB4111D1F8003923F4001378
:10346000C1F800397047000030B5039C0172043385
:1034700004FB0325C361049B03630021059B0060DB
:103480004060C160426102618561046242628162A2
:10349000C162436330BD00000022416A41610161A5
:1034A000C2608262C2626FF00101FEF79FBE00003F
:1034B00003694269934203D1C2680AB10020704790
:1034C000181D704703691960C2680132C260C26981
:1034D000134482690361934224BF436A036100215C
:1034E000FEF778BE38B504460D46E3683BB1626925
:1034F000131D1268A3621344E362002038BD237ACF
:1035000033B929462046FEF755FE0028EDDA38BDCE
:103510006FF00100FBE70000C368C269013BC360B4
:103520004369134482694361934224BF436A436100
:1035300000238362036B03B11847704770B52023E3
:10354000044683F31188866A3EB9FFF7CBFF054630
:1035500018B186F31188284670BDA36AE26A13F891
:10356000015BA362934202D32046FFF7D5FF0023FD
:1035700083F31188EFE700002DE9F84F04460E466B
:1035800090469946202787F311880025AA46D4F84B
:1035900028B0BBF1000F09D149462046FFF7A2FF32
:1035A00020B18BF311882846BDE8F88FA16AE36A41
:1035B000A8EB050B5B1A9B4528BF9B46BBF1400F50
:1035C0001BD9334601F1400251F8040B43F8040BB8
:1035D0009142F9D1A36A40334036A3624035A26AD2
:1035E000E36A9A4202D32046FFF796FF8AF31188D6
:1035F0004545D8D287F31188C9E730465A46FDF7CA
:10360000ABFCA36A5B445E44A3625D44E7E7000051
:1036100010B5029C0172043303FB0421C361002333
:103620008362C362039B0363049B00604060C460C9
:1036300042610261816104624262436310BD000025
:10364000026AC260426A4261026100228262C26210
:103650006FF00101FEF7CABD436902699A4203D1C6
:10366000C2680AB100207047184650F8043B0B604E
:1036700070470000C368C2690133C36043691344E3
:1036800082694361934224BF436A43610021FEF78C
:10369000A1BD000038B504460D46E3683BB123697F
:1036A0001A1DA262E2691344E362002038BD237A46
:1036B00033B929462046FEF77DFD0028EDDA38BDF6
:1036C0006FF00100FBE7000003691960C268013A6E
:1036D000C260C269134482690361934224BF436A92
:1036E000036100238362036B03B118477047000036
:1036F00070B5202304460E4683F31188856A35B9D8
:103700001146FFF7C7FF10B185F3118870BDA36A9A
:103710001E70A36AE26A01339342A36204D3E16993
:1037200020460439FFF7D0FF002080F3118870BDD8
:103730002DE9F84F04460D4691469A464FF0200871
:1037400088F311880026B346A76A4FB95146204630
:10375000FFF7A0FF20B187F311883046BDE8F88F4E
:10376000A06AE76AA9EB06033F1A9F4228BF1F46DB
:10377000402F1BD905F1400355F8042B40F8042BCA
:103780009D42F9D1A36A4033A3624036A26AE36A3C
:103790009A4204D3E16920460439FFF795FF8BF381
:1037A00011884E45D9D288F31188CDE729463A468B
:1037B000FDF7D2FBA36A3B443D44A3623E44E5E7E8
:1037C000026943699A4203D1C3681BB9184670471E
:1037D0000023FBE7836A002BF8D0043B9B1AF5D04B
:1037E0001360C368013BC360C3691A448369026103
:1037F0009A4224BF436A0361002383620123E5E701
:1038000000F052B9034B002258631A610222DA60B9
:10381000704700BF000C0040014B0022DA60704787
:10382000000C0040014B5863704700BF000C004083
:10383000FEE7000010B5194CFEF7C2FBFEF7E4FCF2
:10384000802217492046FEF769FC012344F8180C32
:103850000374144B144AD96821F4E0610904090C7B
:103860000A431249DA60CA6842F08072CA60104A9C
:103870001049C2F8B01F116841F001011160102217
:10388000DA77202283F82220002383F3118862B69E
:103890000948BDE81040FEF763BC00BFD42E0020ED
:1038A0005842000800ED00E00003FA05F0ED00E0EA
:1038B000001000E055CEACC5604200082DE9F84F7D
:1038C0001F4CDFF88090656904F114074FF0000881
:1038D000D9F82430266AAA689E1B96421DD34FF061
:1038E000200AAA68236AD5F80CB0134423622B6817
:1038F000BB425F60A6EB02066361C5F80C8001D194
:10390000FFF78AFF88F311882869D8478AF311885E
:103910006569AB689E42E4D2DAE76269BA420CD0CC
:10392000916823628E1B9660A86802282CBF181825
:10393000981CBDE8F84FFFF775BFBDE8F88F00BFD2
:10394000AC2E0020000C0040034B59685A68521AF4
:103950009042FBD8704700BF001000E04B68436006
:103960008B688360CB68C3600B6943614B690362FA
:103970008B6943620B6803607047000008B52C4BED
:103980002C48D3F8882040F2FF710A43C3F88820FE
:10399000D3F8882022F4FF6222F00702C3F88820BF
:1039A000D3F88820D3F8E0200A43C3F8E020D3F806
:1039B00008210A43C3F808211F4AD3F808311146E9
:1039C000FFF7CCFF1D4802F11C01FFF7C7FF1C48A1
:1039D00002F13801FFF7C2FF1A4802F15401FFF764
:1039E000BDFF194802F17001FFF7B8FF174802F157
:1039F0008C01FFF7B3FF164802F1A801FFF7AEFFF5
:103A0000144802F1C401FFF7A9FF134802F1E001D5
:103A1000FFF7A4FF114802F1FC01FFF79FFF1048D8
:103A200002F58C71FFF79AFFBDE8084000F016B967
:103A30000044025800000258804200080004025866
:103A400000080258000C02580010025800140258D6
:103A500000180258001C0258002002580024025886
:103A60000028025808B500F0CDFAFFF7E3FEFEF794
:103A700013FFBDE80840FEF7D1BC0000704700000E
:103A8000084B1A69920710B508D500241C61202341
:103A900083F31188FFF712FF84F31188BDE810400B
:103AA000FEF71CBF000C0040124BD3F8E82042F098
:103AB0000802C3F8E820D3F8102142F00802C3F846
:103AC00010210D4AD3F81031D36B43F00803D363B0
:103AD0000A4BC7229A624FF0FF32DA6200229A61E3
:103AE0005A63DA605A6001225A6108211A60322052
:103AF000FDF730BC004402580010005C000C004090
:103B0000F8B5514BD3F880204FF0FF32C3F8802036
:103B10000024D3F88010C3F88040D3F88010D3F885
:103B20008410C3F88420D3F88410C3F88440D3F8F9
:103B30008410D96F41F0FF4141F4FF0141F4DF41AE
:103B400041F07F01D967D96F21F0FF4121F4FF01D6
:103B500021F4DF4121F07F01D967D96FD3F88810B4
:103B60006FEA41516FEA5151C3F88810D3F88810B9
:103B7000C1F30A01C3F88810D3F88810D3F8901065
:103B8000C3F89020D3F89010C3F89040D3F8901069
:103B9000D3F89410C3F89420D3F89410C3F8944049
:103BA000D3F89410D3F89810C3F89820D3F898104D
:103BB000C3F89840D3F89810D3F88C10C3F88C2031
:103BC000D3F88C10C3F88C40D3F88C10D3F89C1029
:103BD000C3F89C20D3F89C20C3F89C40D3F89C30B9
:103BE00000F0F0F9194B07229A60194ADA60194A75
:103BF0001A6105225A60184A536A43F480335362AB
:103C0000C2F88440BFF34F8FD2F88030C3F3C904A9
:103C1000C3F34E335B01A50743F6E07603EA060ED5
:103C2000284621464EEA00070139C2F874724F1C3B
:103C300000F14040F6D1203B13F1200FEED1BFF34D
:103C40004F8FBFF36F8FF8BD0044025890ED00E036
:103C5000000004301B00080300ED00E05D4B5E49EE
:103C600001221A605D4B19609A605D4ADA60002299
:103C70001A614FF440429A619A699204FCD51A681D
:103C800042F480721A60574B1A6F12F4407F1FBFC4
:103C90004FF480321A6700221A671A6842F0010254
:103CA0001A60504A134611684807FCD5002111617B
:103CB0001A6912F03802FBD1012119604FF08041DE
:103CC00059605A67484ADA62484A1A611A6842F4E7
:103CD00080321A60434A134611688903FCD5116883
:103CE00041F0800111601A68D205FCD5404A414973
:103CF0009A6200225A631963A1F5C0214B39DA6335
:103D000099635A643C4A1A643C4ADA621A6842F07F
:103D1000A8521A60334B1A6802F02852B2F1285F99
:103D2000F9D148229A614FF48862DA6140221A621E
:103D30004FF00052DA64324A1A65324A5A6502F18B
:103D4000726202F571429A652F4A222111601A6946
:103D500042F003021A61234B1A6902F03802182A52
:103D6000FAD1D3F8DC2042F00052C3F8DC20D3F8BB
:103D7000042142F00052C3F80421D3F80421D3F8FF
:103D8000DC2042F08042C3F8DC20D3F8042142F06A
:103D90008042C3F80421D3F80421D3F8DC2042F098
:103DA0000042C3F8DC20D3F8042142F00042C3F8FB
:103DB0000421D3F80421D3F8F42042F00202C3F81E
:103DC000F420D3F81C2142F00202C3F81C21D3F8DE
:103DD0001C3170470881005100C000F000480258B3
:103DE00002000001004402580000FF010088900812
:103DF000323060006302070147040508FD0BFF0134
:103E0000000001100010E00000200052084A08B530
:103E1000936811680B4003F00103936023B1054AD6
:103E200013680BB150689847BDE80840FEF756BDCF
:103E300080000058C0290020084A08B5936811681E
:103E40000B4003F00203936023B1054A93680BB162
:103E5000D0689847BDE80840FEF740BD8000005894
:103E6000C0290020084A08B5936811680B4003F088
:103E70000403936023B1054A13690BB15069984755
:103E8000BDE80840FEF72ABD80000058C029002088
:103E9000084A08B5936811680B4003F00803936063
:103EA00023B1054A93690BB1D0699847BDE8084032
:103EB000FEF714BD80000058C0290020084A08B54C
:103EC000936811680B4003F01003936023B1054A17
:103ED000136A0BB1506A9847BDE80840FEF7FEBC74
:103EE00080000058C0290020174B10B59C681A6844
:103EF000144004F478729A60A30604D5134A936AB6
:103F00000BB1D06A9847600604D5104A136B0BB109
:103F1000506B9847210604D50C4A936B0BB1D06BBC
:103F20009847E20504D5094A136C0BB1506C9847C9
:103F3000A30504D5054A936C0BB1D06C9847BDE836
:103F40001040FEF7CBBC00BF80000058C029002005
:103F50001A4B10B59C681A68144004F47C429A60AD
:103F6000620504D5164A136D0BB1506D98472305B1
:103F700004D5134A936D0BB1D06D9847E00404D576
:103F80000F4A136E0BB1506E9847A10404D50C4A2A
:103F9000936E0BB1D06E9847620404D5084A136F34
:103FA0000BB1506F9847230404D5054A936F0BB1AA
:103FB000D06F9847BDE81040FEF790BC80000058D5
:103FC000C0290020062108B50846FDF7C3F90621DF
:103FD0000720FDF7BFF906210820FDF7BBF90621F0
:103FE0000920FDF7B7F906210A20FDF7B3F90621EC
:103FF0001720FDF7AFF906212820BDE80840FDF79E
:10400000A9B9000008B5FFF77BFDFDF77BF8FDF7C8
:1040100047FBFDF71FFDFDF7F1FBFFF72FFDBDE8A7
:104020000840FFF7EDBB000010B501390244904293
:1040300001D1002010BD10F8013B11F8014FA3423F
:10404000F5D0181B10BD0000034611F8012B03F832
:10405000012B002AF9D1704712101213121100001F
:1040600001105A0003105900012058000320560087
:10407000EC2E0020402A002053544D333248373F65
:104080003F3F0053544D3332483734332F373533A5
:10409000000000000096000000000000000000008A
:1040A0000000000000000000000000000000000010
:1040B0006916000855160008911600087D160008BC
:1040C0008916000875160008611600084D160008CC
:1040D0009D16000800000000751700086117000811
:1040E0009D17000889170008951700088117000818
:1040F0006D17000859170008F917000800000000A4
:1041000001000000000000000200000000000000AC
:10411000A11900080D1A0008400040008433002057
:1041200094330020020000000000000003000000A3
:1041300000000000511A00080000000010000000FC
:10414000A433002000000000010000000000000077
:1041500014360020010102004865782F50726F6606
:1041600069434E4300437562654F72616E67652D0A
:10417000424C002553455249414C2500BD230008BF
:10418000252300080D190008A123000843000000A2
:104190009441000809024300020100C032090400F2
:1041A00000010202010005240010010524010001A4
:1041B000042402020524060001070582030800FF0B
:1041C00009040100020A0000000705010240000086
:1041D000070581024000000012000000E0410008D5
:1041E0001201100102000040AE2D16100002010263
:1041F000030100000403090425424F4152442500F5
:10420000437562654F72616E6765003031323334D9
:1042100035363738394142434445460000000000F6
:10422000C11B0008A11E00084D1F000840004000EF
:104230004C3700204C370020010000005C37002084
:1042400080000000400100000800000000010000A4
:1042500000040000080000006D61696E00000000AD
:104260007842000868370020603900200100000013
:10427000313800080000000069646C65000000002F
:104280000000802A00000000AAAAAAAA00000000DC
:10429000FFFF00000000000000A00A000001000075
:1042A00000000000AAAAAAAA00000000FFFF000068
:1042B00000000000000000000000000000000000FE
:1042C000AAAAAAAA00000000FFFF00000000000048
:1042D000000000000000000000000000AAAAAAAA36
:1042E00000000000FFFF00000000000000000000D0
:1042F0000080020000000000AAAAAAAA0040010053
:10430000FFFF000000000070070000000000000038
:1043100000000000AAAAAAAA00000000FFFF0000F7
:10432000000000000000000000000000000000008D
:10433000AAAAAAAA00000000FFFF000000000000D7
:10434000000000000000000000000000AAAAAAAAC5
:1043500000000000FFFF000000000000000000005F
:104360000000000000000000AAAAAAAA00000000A5
:10437000FFFF00000000000000000000000000003F
:1043800000000000AAAAAAAA00000000FFFF000087
:10439000000000000000000000000000000000001D
:1043A000AAAAAAAA00000000FFFF00000000000067
:1043B0000000000000000000FF00000000000000FE
:1043C000784000083F0000005004000083400008CF
:1043D0003F000000009600000000080004000000FC
:1043E000F441000800000000000000000000000090
:0C43F000000000000000000000000000C1
:00000001FF
